:10000000370101001301010073E0503073600430C8
:10001000EF0080006F000000130101FE232E11008D
:10002000232C810013040102930720002326F4FEF1
:10003000930730002324F4FE0327C4FE832784FEA5
:10004000B307F7002322F4FEB7470000032744FE5E
:1000500023A0E70073001000130000008320C101FB
:10006000032481011301010267800000130101FFD5
:100070002326110023248100130401016F000000D6
:048000006F80CF8638
:00000001FF
